:1000000000802020592B0000F52B0000F52B00006C
:1000100000000000000000000000000000000000E0
:10002000000000000000000000000000F52B0000B0
:100030000000000000000000F52B0000F52B000080
:10004000F52B0000F52B0000F52B0000F52B000030
:10005000F52B0000F52B0000F52B0000F52B000020
:1000600000000000F52B0000F52B00000000000050
:1000700000000000F52B0000F52B000021280000F7
:10008000F52B0000F52B000095280000F52B000053
:10009000F52B0000F52B0000000000000000000020
:1000A000F52B0000F52B0000000000000000000010
:1000B000F52B000000000000F52B0000F52B0000E0
:1000C000402292029A1A92467047C046154B002B66
:1000D00000D1114B9D46FFF7F3FF00218B460F46E1
:1000E0001148124A121A00F0FDFC0C4B002B00D0F4
:1000F00098470B4B002B00D09847002000210400AC
:100100000D000B4800F0B2F800F000FE20002900BE
:1001100002F086FC00F0B2F80000080000000000C9
:100120000000000000802020D0012020E00C2020D2
:10013000550D0000002934D00123002210B488425C
:100140002CD301242407A14204D2814202D2090106
:100150001B01F8E7E400A14204D2814202D2490027
:100160005B00F8E7884201D3401A1A434C08A042CA
:1001700002D3001B5C0822438C08A04202D3001B60
:100180009C082243CC08A04202D3001BDC08224377
:10019000002803D01B0901D00909E3E7100010BCB7
:1001A000704701B5002000F05FF802BD0029F8D0CB
:1001B00003B5FFF7C1FF0EBC4243891A1847C0467A
:1001C000002941D010B404004C40A4460123002271
:1001D000002900D54942002800D5404288422CD34E
:1001E00001242407A14204D2814202D209011B0149
:1001F000F8E7E400A14204D2814202D249005B0048
:10020000F8E7884201D3401A1A434C08A04202D3AF
:10021000001B5C0822438C08A04202D3001B9C08F0
:100220002243CC08A04202D3001BDC082243002852
:1002300003D01B0901D00909E3E710006446002C34
:1002400000D5404210BC704701B5002000F00CF80A
:1002500002BDC0460029F7D003B5FFF7B3FF0EBCBF
:100260004243891A1847C0467047C04610B501007E
:1002700000230022002000F0DBFD10BD074B10B56D
:100280000400002B02D0002100F044FE044B1B6848
:10029000002B00D09847200002F004F8150F000052
:1002A000D001202010B5034A0349044800F07EF92C
:1002B00010BDC046680120207D1A00007801202072
:1002C00041680B4B10B50400994201D001F0D6FBF8
:1002D000A168084B994202D0200001F0CFFBE168F1
:1002E000054B994202D0200001F0C8FB10BDC0466A
:1002F000D40120203C022020A40220204B6E10B507
:10030000DB0702D48B899B0501D5002010BD886DC9
:1003100000F03EFDF9E7C0464B6E10B5DB0702D496
:100320008B899B0501D5002010BD886D00F038FD3C
:10033000F9E7C046F8B5CE4647463B4C3B4B3C4AF6
:100340002000002580B51A600423082200215C30BB
:1003500025606560A560656625616561A561E360EE
:1003600000F0C0FB2000334B334F344E994663629C
:10037000334B58309846E7622663A362246200F04C
:10038000FFFCCC23E5502F4B200063678023002126
:100390000822C430E550A566E5662567A567E567D0
:1003A00000F0A0FB220088236832E2504A46043362
:1003B000E250424620000433E2500433E750C0309C
:1003C0000433E65000F0DCFCD0232000E550043379
:1003D000E5500433E5501C4A5C33E550583BE2508D
:1003E0000433E5502D300433E55000210433082256
:1003F000FF30E55000F076FB2200F023D032E250CF
:100400004A460433E250200042460433E250293089
:100410000433E750FF300433E65000F0B1FCC0BCB9
:10042000B946B046F8BDC046D4012020D0012020F6
:10043000A5020000BD0800002909000059090000BC
:10044000E90800000900010012000200F0B5C646EC
:100450002C4B070000B51800984600F099FC2A4B79
:100460001B68002B44D0294E7368B468013B03D548
:1004700024E06834013B21D30C22A55E002DF8D185
:100480002000234B5830E360656600F079FC40465D
:1004900000F086FC2000082200212560A560656030
:1004A00025616561A5615C3000F01CFB6563A56397
:1004B000A564E564200080BCB846F0BD3568002D19
:1004C00001D02E00D0E7D6213800490000F026FEEA
:1004D000041E10D00423D0220560250043600C3098
:1004E0000021A060520000F0FDFA34602E00BBE74E
:1004F000FFF720FFB7E73060404600F051FC0C23C7
:100500003B60D7E72C032020D00120206801202069
:100510000100FFFF70B50400094D280000F038FC11
:10052000236A002B05D1074B2362074B1B68002B66
:1005300003D0280000F034FC70BDFFF7FBFEF8E7A5
:100540002C032020C1020000D001202010B5024859
:1005500000F01EFC10BDC0462C03202010B5024840
:1005600000F01EFC10BDC0462C03202010B504482E
:1005700000F00EFC0020034A034900F017F810BDFC
:100580002C03202068012020FD02000010B5044A41
:100590000449002000F00AF8034800F001FC10BDF7
:1005A00068012020190300002C032020F8B54746DD
:1005B000CE46884680B58146170000267D68BC6817
:1005C000013D0DD4A389012B07D90E22A35E01336F
:1005D00003D021004846C04706436834013DF1D2AC
:1005E0003F68002FEAD13000C0BCB946B046F8BD24
:1005F0000EB400B582B003AB04CB8168019300F068
:100600005FFE02B008BC03B01847C0460FB400B587
:10061000064983B004AB086804CB8168019300F0FD
:100620004FFE03B008BC04B01847C0467401202038
:1006300010B5826801F078FC10BDC04610B5034BC0
:1006400001001868826801F06FFC10BD7401202061
:10065000036A70B506000D008468002B58D00C2288
:10066000A35E626ED20701D49A054BD51B0729D52C
:100670002369002B26D0A3682978013B002911D0DB
:100680000135A360002B04DAA26993422CDB0A290E
:100690002AD023685A1C22601970A3682978013B6C
:1006A0000029EDD1A360002B25DA220030000A31A9
:1006B00000F058F901300BD00A25636EDB070CD52A
:1006C000280070BD2100300000F0A6F90028D2D02B
:1006D0000125636E6D42DB07F2D4A3899B05EFD43D
:1006E000A06D00F05DFBEBE72200300000F03AF96E
:1006F0000130C0D1ECE723680A255A1C22600A2287
:100700001A70DAE7A06D00F043FB0C22A35EADE7A0
:10071000FFF700FFA3E7C04610B5034B01001868C0
:10072000FFF796FF10BDC04674012020F0B5474684
:10073000CE4680B51E005F4B04001B680D001700FD
:10074000984683B0002B03D01B6A002B00D19BE09E
:10075000022F05D0012F00D99AE0002E00DA97E091
:10076000636EDB074BD52100404601F087F9616BD2
:10077000002908D023004433994202D0404600F0BB
:1007800039FC002363630023A36163600C22A35E32
:100790001A0657D4484A1340A381022F5DD001ABFB
:1007A0006A462100404601F099FBA3890343A381D7
:1007B000002E2BD0002D2AD043461B6A002B33D0AD
:1007C0000C22A35E012F02D101221343A381082230
:1007D000110025602561666119401A4228D0DA07A8
:1007E00050D50022A260626E7642A661D20723D560
:1007F0000025280003B0C0BCB946B046F0BDA389AF
:100800009B05B0D4A06D00F0C3FAACE7009E3000A9
:1008100000F04CFC051E3ED08022A3891343A38127
:1008200043461B6A002BCBD14046FFF773FEC7E758
:10083000A160626ED207DBD49B05D9D4A06D00F015
:10084000AFFAD5E74046216900F0D4FB0C22A35E45
:10085000194A1340A381022FA1D1002502221A4375
:10086000A2810022A260220047322260226101227E
:10087000616E62611142BCD19B05BAD4A06D00F0DB
:100880008FFAB6E7A660D4E74046FFF743FE5FE77E
:1008900001256D42ADE7009B9946B34205D0180093
:1008A00000F004FC4E46051EB6D10C22A35E013DAD
:1008B000D4E7C046740120205CF3FFFF70B50C0044
:1008C0000E25495F00F0FAF9002803DB636D1B1861
:1008D000636570BDA389024A1340A381F9E7C0464E
:1008E000FFEFFFFF00207047F8B50C001F000C233E
:1008F000C95E05001600CB050AD40A4B3200194028
:100900002800A1810E23E15E3B0000F0EBF9F8BD69
:100910000E23E15E0022022300F0BCF90C23E15E0D
:10092000EBE7C046FFEFFFFF70B50C000E25495FF7
:1009300000F0B0F9431C07D08023A2895B01134368
:100940001BB26065A38170BDA389024A13401BB22C
:10095000F8E7C046FFEFFFFF10B50E23C95E00F0B9
:1009600015F910BDF8B505000E001400002802D0DE
:10097000036A002B41D0A369A360A3891B071BD581
:100980002369002B18D0FF22F7B261691640226854
:10099000D31A99421FDD0133A1680139A160511CAE
:1009A0002160177062699A421ED0A389DB0701D5C6
:1009B0000A2E19D03000F8BD2100280000F02CF8D4
:1009C000002817D1FF222369F7B261691640226817
:1009D000D31A9942DFDC2100280001F04FF80028EB
:1009E00008D101232268D7E72100280001F046F84A
:1009F0000028DFD001267642DCE7FFF78BFDBAE75F
:100A0000030010B50A00034908681900FFF7AAFFA0
:100A100010BDC04674012020314B70B50500186828
:100A20000C00002802D0026A002A4FD00C22A35EDC
:100A30001A071DD52269002A24D0D90708D500211C
:100A4000A160616900204942A161002A08D070BDFF
:100A50000021980700D461690020A160002AF6D126
:100A60001A06F4D540221343A38101204042EEE749
:100A7000DA062ED55A0714D4226908210B43A38124
:100A8000002ADAD1A021802089008000194081420B
:100A9000D3D02100280001F0BFF90C22A35E226907
:100AA000CBE7616B00290AD022004432914204D086
:100AB000280000F09FFA0C22A35E00226263242229
:100AC00093430022626022692260D6E7FFF722FD8D
:100AD000ACE709222A6040221343A381C5E7C04640
:100AE00074012020F0B50500830749D0541E002A68
:100AF00045D003000326CAB202E00135013C3ED3D3
:100B000001332A703342F8D1032C30D9FF220A4036
:100B10001502AD182A04AD180F2C34D92700103F48
:100B20003F093E01B4461E001A00103666441560A7
:100B300055609560D56010329642F8D101373F017B
:100B4000DB190F270C22274022403C00002A0ED040
:100B50003E1FB608B400A4461A001C1D644420C2FF
:100B6000A242FCD103240136B6009B193C40002C64
:100B700005D0C9B21C19197001339C42FBD1F0BDDC
:100B800003001400C0E72700E2E7C046002370B569
:100B9000064C05000800236001F04EFB431C00D00A
:100BA00070BD2368002BFBD02B60F9E70C032020DD
:100BB000374B70B51B680500834260D0C269002ABC
:100BC0005ED0D168002913D000268C59002C08D0A3
:100BD00021002468280000F00DFA002CF8D1EB6900
:100BE000D9680436802EF0D1280000F003FAEA69B3
:100BF0001168002903D0280000F0FCF9EA69946824
:100C0000002C41D021002468280000F0F3F9002CCA
:100C1000F8D16969002902D0280000F0EBF9EA69EF
:100C2000002A03D01100280000F0E4F9296B002904
:100C300002D0280000F0DEF9696B002902D02800FC
:100C400000F0D8F9A96B002902D0280000F0D2F9F1
:100C5000A96C002902D0280000F0CCF9696C0029A9
:100C600002D0280000F0C6F9E96A002902D0280065
:100C700000F0C0F92B6A002B01D02800984770BD06
:100C800041690029C8D1D1E769690029C4D1C9E700
:100C90007401202070B50400080011001A00002320
:100CA000054D2B6001F0E0FA431C00D070BD2B68AD
:100CB000002BFBD02360F9E70C03202070B5040063
:100CC000080011001A000023054D2B6001F0D4FA32
:100CD000431C00D070BD2B68002BFBD02360F9E7CC
:100CE0000C03202070B50400080011001A00002336
:100CF000054D2B6002F0ACFA431C00D070BD2B6890
:100D0000002BFBD02360F9E70C03202070B50D4BBE
:100D10000D4D5E1BB610AB4205D0002408CD01344A
:100D20009847A642FAD802F08FFB084B084D5E1B8D
:100D3000B610AB4205D0002408CD01349847A64236
:100D4000FAD870BD30380000303800003438000068
:100D50003038000070B5074C074D641BA41005D057
:100D6000013CA300EB589847002CF9D102F074FB2A
:100D700070BDC04638380000383800007047C046A3
:100D80007047C0467047C0467047C0467047C0466F
:100D90007047C04601207047012070477047C04629
:100DA0007047C046F0B505000F2A31D903273E0031
:100DB0000D430C0003002E402F4234D11500103D8E
:100DC0002D09AC462F013F1865685D60A5689D60E0
:100DD000E568DD60256810341D601D001033BD42DC
:100DE000F2D165460F230C2401352D01491913401A
:100DF000451914421AD0043B9B0801339B008C59BF
:100E0000AC5104369E42FAD10323AD1989191A4018
:100E1000561E002A06D00023CC5C1A00EC54013385
:100E20009642F9D1F0BD0500561EF4E71A00EFE72F
:100E3000F8B557464E464546DE469846304BE0B537
:100E40000600186899460F009246FFF7A1FF2D4B48
:100E50001D68002D30D06C681F2C4ADC002E1BD082
:100E60008823E8589B4600282FD07833C158524633
:100E7000A300C3181A600122A240114392468022A7
:100E800052008150802142465A50022E04D15246CF
:100E90008431435813434350631C6B604B46023408
:100EA000A40018686751FFF77BFF0020F0BCBB4629
:100EB000B246A946A046F8BD134D1D60134B002B4A
:100EC000C9D01A688823EA50C5E7114B002B10D00F
:100ED0008420400000F0EAF800280AD08022002395
:100EE00052008350043283505B4600216C68E85006
:100EF000BDE74B461868FFF753FF01204042D5E796
:100F0000C8012020BC032020300320200000000066
:100F1000AD100000F0B5DE4657464E464546E0B5FA
:100F2000324C83B0009020688A46FFF731FF304B87
:100F30001F689B46002F4ED0019488237D68FB5884
:100F400098466C1E46D41F35AD005E19783D7D195C
:100F500009E04346002B02D03368534506D0043ED7
:100F6000043D013C36D35346002BF2D17B682A68FE
:100F7000013BA34229D000232B60002AEFD07B68DD
:100F800099464346002B1ED0012380204146A340B2
:100F900040000958194216D04046A10041588C46DD
:100FA000822149004058184211D16146009890476B
:100FB0005B467A681B684A4501D1BB42CFD0002B03
:100FC00008D01F00B9E79047F2E77C60D5E760469C
:100FD0009047EDE7019C2068FFF7E2FE03B0F0BC0C
:100FE000BB46B246A946A046F0BDC046C801202077
:100FF000BC03202070B50500002915D00C1F236804
:10100000002B23DB280000F011F9274A1368002B7E
:1010100005D0A3420BD92168601883422CD0280048
:101020006360146000F00AF970BDA34210D81A0082
:101030005B68002BF9D1106811188C4218D02CD3A2
:1010400063605460280000F0F9F8EDE7E418D9E790
:1010500011685018A04214D01FD82168601883422C
:10106000EED118685B684118216063605460E9E75D
:1010700023681B181360E5E718685B684118216056
:10108000CDE720680918501811608342DAD118683A
:101090005B68411811605360D4E70C2328002B6073
:1010A00000F0CCF8C0E7C046C403202010B5034BC5
:1010B0000100186800F032F810BDC046740120200D
:1010C00010B5034B01001868FFF794FF10BDC04630
:1010D0007401202070B5104E050033680C00002B01
:1010E00015D02100280001F015F8431C0CD0032373
:1010F000C41C9C43A04205D0211A280001F00AF824
:10110000013001D0200070BD01246442FAE70021C3
:1011100001F000F83060E4E7C0032020F8B50323B5
:10112000CE464746CD1C9D430835060080B50C2DA4
:101130001ED20C25A9421DD8300000F077F83A4F96
:101140007A68002A1AD0140004E063682200002B99
:1011500014D01C0023685B1BF7D40B2B27D9611913
:10116000256094425BD051600B6063684B600DE07A
:10117000002DDFDA0C230020336014E0290030005A
:10118000FFF7A8FF0400431C19D00560300000F0F1
:1011900055F8200007220B30231D9043C21A9842B5
:1011A00001D01B1AA350C0BCB946B046F8BD636855
:1011B000944202D05360E9E743467B60E6E77B68F0
:1011C0009846002B24D0444663689846002BFAD1F9
:1011D0002368002199463000A14400F09BFF81451F
:1011E00016D123683000ED1A2900FFF773FF013094
:1011F0000ED023687A685B1923605368002B02D1F4
:10120000DAE71A005B689C42FBD100235360BDE71C
:101210000C233000336000F011F80020C3E7796040
:101220000B6063684B60B1E7C003202010B5024833
:10123000FFF7AEFD10BDC0462003202010B50248C8
:10124000FFF7AEFD10BDC04620032020936810B507
:10125000013B9360002B04DA9469A34207DB0A295F
:1012600005D01368581C10600800197010BDFFF7F6
:1012700079FBFBE7F8B506000F00002B0DD014003A
:10128000D51802E00134AC4207D03A003000217892
:10129000FFF7DCFF431CF5D1F8BD0020FCE7C0469A
:1012A00010B5140092680023002A05D0220000F037
:1012B0002BFC00220300A26000221800626010BD17
:1012C000F0B54E464546DE465746E0B5814688466F
:1012D00014001E009FB0002803D0036A002B00D129
:1012E0004EE143460C229B5E4246526ED20702D428
:1012F0009A0500D43CE11B0700D493E043461B69E8
:10130000002B00D18EE0002306AD6B6120336B769D
:101310001033AB765346A3469B4F059603935B462B
:101320001B78002B00D1ABE05C4604E0637801340D
:10133000002B00D18CE0252BF8D15B46E31A9A46AE
:101340005C4500D089E02378002B00D198E0012390
:1013500000225B4206920793002200230892099321
:1013600000234332AB54AB6501339B46013406E0A6
:101370005A46C01B82401C0029680A432A60052285
:101380003800217800F0D8FE631C1E000028EFD141
:101390002A68D10602D5432120306854110702D5AE
:1013A00043212B20685421782A2900D07BE0059B1B
:1013B000191D1B680591002B00DAADE0EB60617828
:1013C0002E2900D187E0714C0322200000F0B4FEEA
:1013D000002806D04023001B83402A6801361343AF
:1013E0002B603178731C062269489B46297600F0F1
:1013F000A3FE002800D195E0664B002B00D17BE0D6
:1014000005AA0092290042464846634B00E000BF0F
:101410000390039B013333D0039A6B699446634472
:101420006B617CE741464846FFF7F6FA002800D199
:1014300069E743465B6EDB0707D443469B899B0500
:1014400003D44346986DFFF7ABFC0120404223E0F4
:101450005B46E31A9A465C4512D03B00002647469D
:10146000A0464C46994602E00136B2454BD95B4650
:101470003A002000995DFFF7E9FE0130F4D1B8464B
:1014800043465B6EDB0700D56FE043469B899A05B8
:1014900067D55B06D9D468691FB0F0BCBB46B246BD
:1014A000A946A046F0BD080030382600092800D91A
:1014B00086E7EA68140000E00133A20012191978E7
:1014C00052001418080030380928F5D91E00EC60C5
:1014D0002E2900D077E771782A292DD1059BB01CE1
:1014E0001A1D1B6805926B60002B02DA01235B4218
:1014F0006B60B178060066E70722059B07339343CC
:101500000833059388E74B466A69A146524444462E
:101510006A61B8461F0016E75B42EB6002231A437C
:101520002A604CE705AA00922900424648461A4B19
:1015300000F0E4F803906CE708000023303801362F
:101540006B60092800D93EE71A0093009B18717858
:101550005B001A180800303801360928F5D96A608E
:1015600031E74346986DFFF71BFC43469B8990E7A4
:101570004346986DFFF70CFC43460C229B5EBAE68F
:10158000FEF7C8FFADE6C046F4370000FC370000A8
:1015900000380000000000007512000010B50400C3
:1015A0001300034A10680A002100FFF789FE10BDEE
:1015B00074012020F8B557464E464546DE46E0B554
:1015C0001F000A9B924698460A698B6806000C0029
:1015D0009A4200DA1A0053461A604323E35C002B58
:1015E00002D0514601320A602268910661D5534605
:1015F000524606201B680233136022681100104215
:1016000008D10020814619308346E168A3449942FD
:1016100047DC11004323E35C5A1E934189060AD537
:101620003020E1184331087045215A1C615CA21832
:101630004332023311702200390030004332C04778
:1016400001301DD0534606251B68E1689C4623687F
:10165000A26820692B40042B31D0824239DD00235F
:101660009946121A914400251A3402E001354D457D
:101670002FDA0123220039003000C0470130F5D1B4
:1016800001204042F0BCBB46B246A946A046F8BD88
:1016900001239C465346E5681B68E144ED1A4D451D
:1016A00024DD01235A4639003000C0470130EFD114
:1016B000E6E7062111420ED05A1E9341BBE763466E
:1016C000C91ACB43DB170B4099468242C9DC00297B
:1016D000C9DC0020D6E700205346814619308346F6
:1016E0001B68E168A3449942DBDC92E7432321684D
:1016F000E35C5A1E9341890692D49CE7F0B54E46AE
:10170000994643239C4657464546DE468C446346ED
:10171000E0B587B002930C00097E90460700109A4E
:10172000002914D00B00583BDBB2202B48D8884846
:101730009B00C3589F46136821681D1D6069156092
:101740001B680E0602D4490600D5DCE018600023B1
:10175000029D23614B46210000933800434605AAB1
:10176000FFF728FF01301ED02A00414638002369C8
:10177000C847013017D02368E068059E9B071BD53A
:10178000B04219DD19239A460025A24404E0E0681E
:101790000135831BAB420FDD012352464146380021
:1017A000C8470130F3D10120404207B0F0BCBB462E
:1017B000B246A946A046F0BDB042F6DA3000F4E7E2
:1017C0002500422301204235E154432300222061B9
:1017D000E254BFE713682168181D10600D0602D49B
:1017E0004D0600D594E01A6816006368002A00DAF6
:1017F00092E0584A93460A2203924BE0136820680D
:1018000040CB050601D440067FD41360514B9B4664
:101810006F2900D191E00A23039337E01368250074
:10182000191D11601A68422301204235E254CCE7A9
:101830001368191D11601D6800212800626800F0FE
:101840007BFC002800D181E0401B6060BDE72023C5
:1018500021680B4323604521782060543E498B4624
:10186000116840C9180603D4580601D53604360C51
:101870001160DA0702D5202213432360002E03D122
:1018800020222368934323601023039343230022E1
:10189000E2546368A360002B18DB042122688A43AA
:1018A0002260002E12D1029D002B49D1039B082BF0
:1018B0001ED0029B5B1B23614CE745235821E1545A
:1018C000244923688B46CBE72368C4E7039B9A46E9
:1018D000029D30005146FEF769FC5B465B5C013DB2
:1018E0002B70330006005345F3D2039B082BE0D145
:1018F0002368DB07DDD5626823699A42D9DC30238F
:10190000013D2B70D5E7188021E73604360C7CE7C3
:1019100000269E5F320068E743222D20A054A3607A
:10192000002B02DB0423994321600A239A46094BCA
:1019300076429B460A230393CAE708230393A5E74D
:101940005B4625001B7842352B70AFE760683CE7AB
:10195000BC360000083800001C380000F0B5C64650
:1019600000B50C228B5E07000C001A073CD44A68B5
:10197000002A5CDDE66A002E32D000223D68216A32
:101980003A60DA0457D4002201233800B04702003D
:10199000431C65D00C21635EE66A216A5B0706D5AD
:1019A0006368D21A636B002B01D0236CD21A002318
:1019B0003800B047431C40D0002363602369236094
:1019C000A389DB044AD4616B3D60002908D0230061
:1019D0004433994202D03800FFF70CFB00236363C5
:1019E000002080BCB846F0BD0E69002EF8D00D680E
:1019F0000022AD1B0E609B0700D14A69A260002D3A
:101A000004DCEDE736182D1A002DE9DDA36A32005B
:101A1000984638002B00216AC0470028F2DC40229B
:101A2000A38913431BB20120A3814042D9E70A6C6A
:101A3000002A9FDCD4E7626DB0E739680C22A35E10
:101A40001D2916D80C4ACA40D20712D5002262605E
:101A500022692260DB04B6D50029B4D16065B2E703
:101A60003B68002B96D01D2B01D0162BD7D13D60A3
:101A7000B6E740221343D6E7010040200B6970B55A
:101A800005000C00002B1AD0002802D0036A002B9E
:101A900017D00C22A35E002B11D0626ED20701D4A6
:101AA0009B0511D528002100FFF758FF636E050044
:101AB000DB0702D4A3899B050AD5280070BD002549
:101AC000FBE7FEF727FDE4E7A06DFFF761F9E9E723
:101AD000A06DFFF765F9F0E7010010B5002804D00C
:101AE000054B1868FFF7CAFF10BD044A04490548B2
:101AF000FEF75CFDF8E7C046740120206801202055
:101B00007D1A000078012020F0B54E46DE4657468B
:101B10004546E0B5936883B00C0091460090002BD9
:101B20005FD00C23CA5E130763D50B69002B60D00E
:101B30004B461F68930723D5A36A00269A46B34BEA
:101B400000259846216A002D16D02B00454500D966
:101B5000AE4B32000098D047002859DD4B464A462C
:101B60009B6836181B1A2D1A9360002B39D0A36A74
:101B7000216A9A46002DE8D13E687D680837E2E781
:101B8000D30762D50023B84600209A4600261F00DE
:101B9000002E45D000284CD03B00B3469E4200D9D1
:101BA0009B4620682269A5686369904203D9ED18B5
:101BB000AB4500DDFEE05B4500DDEEE0A56A524688
:101BC000216A0098A847051E22DD01207F1B19D03D
:101BD0004B464A469B68AA445B1B761B9360002BCE
:101BE000D6D1002003B0F0BCBB46B246A946A04601
:101BF000F0BD21000098FEF70FFF00280DD10C2347
:101C0000E25E95E721000098FFF738FF0028DFD05B
:101C10000C22A35E40221343A38101204042E1E74E
:101C20000822434694465E68E044002EF8D01B68C4
:101C30009A4632000A21504600F07EFA002800D170
:101C4000DBE053460130C71AA6E7002380219A46FD
:101C500089008B46564655462068A36884469846B8
:101C6000002D5CD059460A425DD09A46AB4200D95D
:101C700090E09023DB001A4232D02169431A606958
:101C8000019343001B18D80FC3185810019B8246BC
:101C900001335B19834201D99A461800520500D4DA
:101CA00097E001000098FFF739FA8046031E00D143
:101CB000A6E0019A2169FFF775F8A389544A1340F9
:101CC00080221343A38143462361019B1A004244AF
:101CD000944622605246A846AA46D31A6261A3607F
:101CE00052463100604600F097F94246A84600256A
:101CF000A36820689B1A5044A36020604B4642466C
:101D00009B6846449B1A4A46936000D169E70C23BE
:101D1000E25E2068A36884469846002DA2D13E6802
:101D20007D6808379AE7226982421BD36269904630
:101D3000AA4217D8802328001B069D4200D33548AD
:101D40004146FEF73DFA4346A26A43439046216A64
:101D500032000098C047002800DC59E7804643461F
:101D6000ED1ACBE79846AB4200D9A846424631006F
:101D700000F052F94246A36820689B1A4044A360D1
:101D80002060002BEBD121000098FFF777FE0028A0
:101D9000E5D03DE7A846AA46A2E75A46514600F0DC
:101DA0003BF95A46A3685D469B1AA36023685B44CF
:101DB00023600AE751462A0000F02EF9236821002B
:101DC0005B1900982360FFF759FE002800D1FCE65C
:101DD0001EE70200009800F0E9F98046002800D0D4
:101DE00071E7009D21692800FFF704F98022A3898B
:101DF0009343743A1BB22A600CE7731C1F00CCE6B5
:101E0000009A0C3313600C22A35E03E700FCFF7FF3
:101E10007FFBFFFFFFFFFF7FF0B50C23CD5E0600C9
:101E20000C0097B0AA0707D523004733236023612E
:101E30000123636117B0F0BD0E23C95E00292BDBBF
:101E40006A4600F041F9002824DB8027FF003900B2
:101E50003000019DFFF762F9002833D08022A3896A
:101E600020601343A381F0231B021D4080232061C7
:101E700067619B019D42DDD130000E23E15E00F0E1
:101E800037F90028D6D00322A389934301221343B4
:101E9000A381CFE70C23E55E0F4B2D06ED171D4008
:101EA0008023DB009C46654429003000FFF736F9AB
:101EB000002807D08022A38920601343A3812061DA
:101EC0006561B7E70C22A35E9A05B3D4032293435E
:101ED00002221343A381A7E740FCFFFF70B50C006B
:101EE0001E000E23C95E150096B0002914DB6A4659
:101EF00000F0EAF800280FDBF02301991B021940DB
:101F0000084B9C4661444B4259418023DB00002032
:101F100031602B6016B070BDA38900211B06F4D57B
:101F20004023F4E700E0FFFF70B506000D00140049
:101F3000002802D0036A002B2DD0636EDB0702D489
:101F4000A3899B051FD5A368013BA360002B05DA7D
:101F5000A269934210DBEBB20A2B0DD0FF2023685D
:101F60005A1C22601D700540636EDB0702D4A389F2
:101F70009B050CD5280070BD290022003000FEF71B
:101F8000F1FC0500F0E7A06DFEF702FFDBE7A06DB6
:101F9000FEF706FFEEE7FEF7BDFACEE71D4B70B584
:101FA0001E6805000C00002E02D0336A002B2DD0D5
:101FB000636EDB0702D4A3899B051FD5A368013B91
:101FC000A360002B05DAA269934210DBEBB20A2B67
:101FD0000DD0FF2023685A1C22601D700540636EDF
:101FE000DB0702D4A3899B050CD5280070BD29000E
:101FF00022003000FEF7B6FC0500F0E7A06DFEF70A
:10200000C7FEDBE7A06DFEF7CBFEEEE73000FEF784
:1020100081FACDE774012020F0B588420AD98B18E7
:10202000984207D2531E002A03D0CA5CC254013B17
:10203000FBD2F0BD05000F2A0AD8561E002AF8D0A0
:102040000023CC5C1A00EC5401339642F9D1F0E73E
:1020500003273E000D430C0003002E402F422DD1DC
:102060001500103D2D09AC462F013F1825681D6055
:1020700065685D60A5689D60E5681034DD601D00E1
:102080001033BD42F2D165460F230C2401352D01DA
:10209000491913404519144213D0043B9B080133DE
:1020A0009B008C59AC5104369E42FAD103231A404E
:1020B000AD198919561E002AC2D1BAE70500561E6D
:1020C000BEE71A00B9E7C046002370B5074D04000B
:1020D000080011002B6000F0B7F8431C00D070BD61
:1020E0002B68002BFBD02360F9E7C0460C032020AF
:1020F000002370B5064C05000800236000F0ACF822
:10210000431C00D070BD2368002BFBD02B60F9E787
:102110000C032020002370B5064C05000800236046
:1021200000F0B2F8431C00D070BD2368002BFBD038
:102130002B60F9E70C03202070B5CCB283070DD0DB
:10214000531E002A0FD0032504E00130284206D098
:10215000013B08D30278A242F7D170BD1300032BD4
:1021600003D8002B14D10020F7E7FF220A40150204
:10217000AD182A040B4EAD1803E0043B0430032BCA
:10218000EFD9026808496A40511891433142F4D0AE
:10219000C31802E001309842E5D00278A242F9D19A
:1021A000DBE7C04680808080FFFEFEFEF0B5C646BD
:1021B00007000E00140000B500292DD0002A27D0FA
:1021C00000F030F88046844203D835004308A3422B
:1021D00010D321003800FEF7A1FF051E0AD022000F
:1021E00044450BD831002800FEF7DCFD31003800F3
:1021F000FEF700FF280080BCB846F0BD3100424623
:102200002800FEF7CFFD31003800FEF7F3FEF1E7BE
:10221000FEF7F0FE0025EDE71100FEF77FFF050059
:10222000E8E7C0460B1F1B68181F002B00DB704738
:102230000B58C018FBE7C04658220120014B404212
:102240001A6070470C03202058220120014B4042A5
:102250001A6070470C0320205822024B00201A609D
:102260007047C0460C03202058220120014B4042F9
:102270001A6070470C03202058220120014B404275
:102280001A6070470C032020044A030010680028DD
:1022900002D0C318136070470148FAE7C803202032
:1022A000E00C2020FEE7C04610B5064C2378002B3A
:1022B00007D1054B002B02D0044800E000BF0123EA
:1022C000237010BDCC032020000000003038000037
:1022D000044B10B5002B03D00349044800E000BFB5
:1022E00010BDC04600000000D003202030380000A0
:1022F00080B582B000AF0200FB1D1A70FB1D1B7879
:102300007F2B10D8FB1D1B781A001F231340084990
:1023100001229A40130080228B50BFF34F8FC0469A
:10232000BFF36F8FC046C046BD4602B080BDC046F9
:1023300000E100E080B586B000AF78603960162318
:10234000FB1800221A800A23FB18224A1A80002355
:102350003B6134E03B697A68D3181B781BB21B02DF
:102360001AB216217B1800201B5E53401AB27B184C
:102370001A800023FB601CE016217B1800229B5E64
:10238000002B0DDA7B1800229B5EDB181AB20A23A1
:10239000FB1800201B5E53401AB27B181A8005E020
:1023A0001623FA18FB181B88DB181380FB6801330F
:1023B000FB60FB68072BDFDD3B6901333B613A695A
:1023C0003B689A42C6DB1623FB181B881800BD46E3
:1023D00006B080BD2110000090B585B000AF814BE4
:1023E000FB60FB68804A9B5C1A000223134001D10A
:1023F0000023F2E07D4BBB60FA688123DB00D258FA
:10240000FA239B009A4207D3FA688123DB0000215C
:10241000D1504320FEF712F9BB68754A9B5A754AA2
:10242000934253D9BB681B78022B4FD1BB685B78B2
:102430001A00BB689B78D318FF2B08D01520FEF735
:10244000FDF8BB686A4A002199520023C5E0BB68C9
:102450000333BC1D8022D20011001800FFF76AFF71
:1024600003002380BB68644A9B5C1BB21B021AB248
:10247000BB6860495B5C1BB213431AB23B1D1A80F8
:10248000BA1D3B1D12881B889A4218D1F868BB6898
:1024900003338022D2001900FEF784FC8023DB0185
:1024A0000821180000F010F9FB68524A9B585A1C8A
:1024B000FB6850495A500620FEF7C0F802E015208C
:1024C000FEF7BCF8BB684A4A00219952BB68484AEB
:1024D0009B5A842B5CD9BB681B78012B58D1BB68F5
:1024E0005B781A00BB689B78D318FF2B08D01520A7
:1024F000FEF7A4F8BB683E4A0021995200236CE025
:10250000BB680333BC1C80211800FFF713FF0300D6
:102510002380BB6883229B5C1BB21B021AB2BB6880
:1025200084215B5C1BB213431AB23B001A80BA1CB5
:102530003B0012881B889A4223D1F868BB6803339A
:1025400080221900FEF72EFCFB682A4A9B582B4A72
:10255000134004D5013B0822524213430133DAB23F
:102560008023DB011100180000F0AEF8FB68214A5F
:102570009B585A1CFB681F495A500620FEF75EF80C
:1025800002E01520FEF75AF8BB68194A002199525B
:10259000BB68174A9B5A012B0CD1BB681B78042BD4
:1025A00008D10620FEF74AF8BB68114A002199526B
:1025B000012312E0BB680E4A9B5A012B0CD1BB6869
:1025C0001B78182B08D11820FEF738F8BB68084A8A
:1025D00000219952002300E000231800BD4605B0F9
:1025E00090BDC046E803202002040000B00820206F
:1025F000260400000404000003040000070000801B
:1026000080B582B000AF0200BB1D1A80BB1D1A88C6
:10261000104B11001800FDF7F9FF0EE0FA23DB0163
:10262000180000F031FE0C4B1B786F2B05D10B4BC3
:102630000B4A01219954012307E0BB1D1B88BA1DD9
:10264000591E1180002BE9D100231800BD4602B0AD
:1026500080BDC04630360000B0082020E8032020AE
:102660000204000080B586B000AF78607B681B680C
:102670007B617B6804331B683B617B690F4A934233
:1026800012D97B690E4A93420ED81220FFF730FE12
:1026900072B6C0467B69BB60BB6883F30888C046DE
:1026A0003B69FB60FB689847064B1800FEF734F85F
:1026B00000231800BD4606B080BDC046FFFF1F20A6
:1026C0000000202250360000B0B586B000AF0200F6
:1026D000BB1D1A807B1D0A1C1A70424A8023DB0036
:1026E000D15A1423FB18BA1D12888A181A8016238F
:1026F000FB1800221A8058E016203B181B88394A24
:10270000D35C19003B181B880133364AD35C1B028B
:102710000A001A433B181B8802333249CB5C1B0466
:102720001A433B181B8803332E49CB5C1B0613430B
:102730001A000C257B191A603B181B880433294AA0
:10274000D35C19003B181B880533264AD35C1B0257
:102750000A001A433B181B8806332249CB5C1B0432
:102760001A4304003B181B8807331E49CB5C1B0629
:1027700013431A007B195A601B4B180000F0B2FD7E
:1027800019481423FB181A883B191B88D318190001
:102790007B191A0000F08AFD134B180000F0B0FD01
:1027A0003B193A19128808321A801623FB181A8826
:1027B0007B1D1B78DB019A429EDB0A4A8023DB00EB
:1027C000D35A8022D2009446634499B2054A8023AA
:1027D000DB00D1522E20FDF731FF01231800BD464A
:1027E00006B0B0BDE803202000D00C4080B582B018
:1027F00000AF78607A6881235B01D358DBB21800A0
:10280000BD4602B080BD80B582B000AF78607A6806
:1028100081235B01D358DBB21800BD4602B080BDF6
:1028200080B500AF174B1800FFF7EDFF03000B2B2F
:1028300024D111E0144B154A9B5A013399B2124B23
:10284000124A9952104B114A9B5A114A934203D98A
:102850000D4B0E4A002199520A480B4B0B4A9B5ACA
:102860001A00094BD318190000F0DCFD031EE1D15A
:10287000054A8523DB000121D15400E0C046C04653
:10288000BD4680BD00801040B00820202604000016
:102890000504000080B500AF234B1800FFF7A6FF2A
:1028A0000300012B3CD1214B214A9B5C1A000223DF
:1028B000134016D01D4A8123DB00D358591C1B4AF4
:1028C0008123DB00D150194A8123DB00D258FA233F
:1028D0009B009A4205D3154A8123DB00FA21890027
:1028E000D150144A8523DB00D35C002B18D0114A49
:1028F0008523DB00D35C0133D9B20E4A8523DB008C
:10290000D1540C4A8523DB00D35C042B08D9094A37
:102910008523DB000021D154064B074A022199543C
:10292000C046BD4680BDC04600008640E80320206A
:1029300002040000B00820202904000080B582B005
:1029400000AF0200FB1D1A70FB1D1B787F2B09D8FE
:10295000FB1D1B781A001F231A40044B01219140D4
:102960000A001A60C046BD4602B080BD00E100E02A
:1029700080B582B000AF0200FB1D1A70FB1D1B78F2
:102980007F2B0AD8FB1D1B781A001F231340054913
:1029900001229A40C0235B00CA50C046BD4602B027
:1029A00080BDC04600E100E080B500AFBFF34F8FAF
:1029B000C046044B044ADA60BFF34F8FC046C0469E
:1029C000FDE7C04600ED00E00400FA0580B500AF69
:1029D0000D4B1800FDF7A0FE0C4B1800FDF79CFEF8
:1029E0000B4B1800FDF798FE0A4B1800FDF794FEFC
:1029F000094B0A4A9B5C01221343D9B2064B074A92
:102A00009954C046BD4680BD60360000683600005F
:102A10007436000084360000E80320200204000021
:102A200080B500AF424B1B6898680023022200214A
:102A3000FDF77CFE00F0F0FA0F20FFF799FF0F2062
:102A4000FFF77CFF1220FFF779FF3A4B1800FFF7E2
:102A5000D7FD031E02D0FFF7B9FF0AE0364B18007E
:102A6000FDF75AFE8023DB011800FFF7FBFDFFF79F
:102A7000ADFF324B324A9B5C022B39D1314B324A8B
:102A80009B5C1A000123134032D02C4B2C4A0021AE
:102A900099542A4B2D4A9B5A013B284AD35C322B2E
:102AA00023D024DC302B02D0312B02D01FE0FFF7E3
:102AB0007BFFE0231A028023DB011100180000F0E5
:102AC000DBFC204B204A9B5C02221343D9B21D4BF6
:102AD0001D4A99541E4A194BFF211800FEF702F8AF
:102AE000164B1A4A0021995202E0C04600E0C04647
:102AF000FFF772FC031EBCD0124B134A9B5C0222F0
:102B00001343D9B20F4B104A9954124B1800FDF7DA
:102B100003FE8023DB011800FFF7A4FD094B0A4ADE
:102B20009B5C01221343D9B2064B074A9954A0E794
:102B3000740120208813000094360000B008202083
:102B400029040000E80320200204000026040000FD
:102B500006040000AC36000080B584B000AF1D4B09
:102B6000FB601D4BBB6007E0FA68131DFB60BB6890
:102B7000191DB96012681A60BA68184B9A42F3D3EB
:102B8000174BFB60174BBB6007E0FA68131DFB6037
:102B9000BB68191DB96012681A60BA68124B9A4274
:102BA000F3D3124B7B60124B3B6005E07B68002245
:102BB0001A607B6804337B607A683B689A42F5D37D
:102BC000FEF7A4F8FFF72CFF00F014F8C046BD464E
:102BD00004B080BD4038000068012020D0012020D2
:102BE000883400000000202068012020D00120202F
:102BF000E00C202080B500AFC046FDE790B583B063
:102C000000AF02003960FB1D1A70FB1D1B787F2B83
:102C100028D82F4AFB1D1B785BB29B08C0339B0052
:102C20009B58FA1D1278110003220A40D200FF219E
:102C300091400A00D2431A4011003B689B01FF22D9
:102C40001A40FB1D1B78180003230340DB009A4049
:102C50001F48FB1D1B785BB29B080A43C0339B00D7
:102C60001A5031E01B4AFB1D1B7819000F230B4043
:102C7000083B9B0806339B00D31804331B68FA1DDE
:102C80001278110003220A40D200FF2191400A006D
:102C9000D2431A4011003B689B01FF221A40FB1DE2
:102CA0001B78180003230340DB009A400948FB1DF2
:102CB0001B781C000F232340083B9B080A43063364
:102CC0009B00C31804331A60C046BD4603B090BDD4
:102CD00000E100E000ED00E080B586B000AFF860F4
:102CE000B9607A60FB681B687B617B68DA437B694B
:102CF00013407B61BB687A681A407B691A43FB68A2
:102D00001A60C046BD4606B080BD000080B582B0E6
:102D100000AF0200FB1D1A700449FB1D1B78044A1A
:102D20008B50C046BD4602B080BDC04600F00A4090
:102D30000813000080B582B000AF0200FB1D1A70BE
:102D4000064B882252019818FB1D1B78032219009C
:102D5000FFF7C2FFC046BD4602B080BD00F00A408A
:102D600080B582B000AF78607A6880231B01034988
:102D7000D150C046BD4602B080BDC046010000260D
:102D800080B582B000AF78607B68034A03499950F0
:102D9000C046BD4602B080BD04080000030000B17B
:102DA00080B582B000AF7860054A7B689B00D3187D
:102DB000043381221A60C046BD4602B080BDC046C1
:102DC0000080424080B582B000AF7860396006492B
:102DD0003B6880221A437B689B00CB1804331A603F
:102DE000C046BD4602B080BD0080424080B582B082
:102DF00000AF7860396006493B68064A1A437B6831
:102E00009B00CB1804331A60C046BD4602B080BD9B
:102E1000008042408000040080B582B000AF78603E
:102E200039607A6895235B013968D150C046BD4648
:102E300002B080BD80B582B000AF786039607B6839
:102E400003493A685A50C046BD4602B080BDC046EC
:102E5000D012000080B582B000AF78607A6880231D
:102E60001B010349D150C046BD4602B080BDC046DB
:102E70000100002680B582B000AF78607B68034A0D
:102E800003499950C046BD4602B080BD0408000009
:102E9000030000B180B582B000AF78607B68034A60
:102EA00001219950C046BD4602B080BD0811000006
:102EB00080B582B000AF786039607B68054A9A5867
:102EC0003B681A437B6803495A50C046BD4602B06E
:102ED00080BDC0462810000080B582B000AF786089
:102EE0007A6880231B010349D150C046BD4602B019
:102EF00080BDC0460100002680B582B000AF78607A
:102F00007B68034A03499950C046BD4602B080BD64
:102F100004080000030000B180B582B000AF786003
:102F20007A6888235B01D35801221A4311007A681A
:102F300088235B01D150C046BD4602B080BD80B53C
:102F400082B000AF786039607B6888225201944675
:102F50006344C022520239681800FFF7BDFEC04624
:102F6000BD4602B080BD000080B584B000AFF860FF
:102F7000B9607A60FB68104A944663440F4AB968A6
:102F80001800FFF7A9FEFB680D4A94466344796870
:102F90003F221800FFF7A0FEFB680A4A9818FB685A
:102FA000084A9B580122134001221900FFF794FEA2
:102FB000C046BD4604B080BD10110000FFFF0000F8
:102FC000141100000411000080B582B000AF7860D9
:102FD00039607B68054A9446634439683F2218008B
:102FE000FFF77AFEC046BD4602B080BD1811000052
:102FF00080B582B000AF786039607B68054A9A5826
:103000003B681A437B6803495A50C046BD4602B02C
:1030100080BDC0462810000080B500AF00F014F855
:1030200000F042F800F066F800F070F800F092F856
:1030300000F0C8F8034BB82200219954C046BD46A1
:1030400080BDC046F407202080B500AF124B1800A9
:10305000FFF796FE114B1800FFF792FE104B180079
:10306000FFF708FF0F4B1800FFF746FF0A4B180049
:10307000FFF776FE094B1800FFF772FE084B1800A9
:10308000FFF7E8FE074B1800FFF726FF102000F0BF
:10309000FBF8C046BD4680BD00000A4000200A4043
:1030A000000086400080104080B500AF022114204F
:1030B000FFF788FE02211520FFF798FE3120FFF769
:1030C0006FFE0E20FFF76CFE0F20FFF769FE074B27
:1030D000074A11001800FFF79FFE044B044A110035
:1030E0001800FFF7A7FEC046BD4680BD00200A407D
:1030F0000C00400080B500AF0020FFF707FE002065
:10310000FFF718FEC046BD4680BD000080B500AF89
:103110000D4A0E4B1900100000F002F90A4A0C4B40
:103120001900100000F00AF9074B01211800FFF701
:10313000BFFE01211220FFF761FD034B1800FFF7CE
:10314000A9FEC046BD4680BD000086404037000055
:103150004437000080B500AF164A174B1900100025
:1031600000F056F9134A154B1900100000F02CF925
:10317000104B00211800FFF7E2FE0E4B1722112121
:103180001800FFF7F1FE0B4B0D4A11001800FFF776
:103190002FFF01210F20FFF731FD064B0A211800F8
:1031A000FFF712FF034B1800FFF7B6FEC046BD46FF
:1031B00080BDC04600801040583700005C370000DA
:1031C0000104000080B500AFC046BD4680BD0000D0
:1031D00080B582B000AF78607B68064A9B580122B8
:1031E0001340013B5A425341DBB21800BD4602B0C6
:1031F00080BDC0460811000080B582B000AF786085
:103200000A00FB1C1A70FB1C19787A6889235B0181
:10321000D150C046BD4602B080BD000080B582B02E
:1032200000AF0200FB1D1A70C046084B1800FFF7E4
:10323000CFFF031EF9D1054AFB1D1B7819001000B2
:10324000FFF7DAFFC046BD4602B080BD00801040E7
:1032500080B586B000AFF860B9607A6000237B610A
:1032600009E07B69BA68D3181B781800FFF7D6FF0E
:103270007B6901337B617A697B689A42F1DB7B6809
:103280001800BD4606B080BD831E043BC046FCD27C
:103290007047C046022310B51A43034BC2501C337B
:1032A000C15000F0E1F810BD04110000012330B559
:1032B000074C084D0351084C0551043C015114685A
:1032C000064944505168064A8150343A835030BD13
:1032D00004110000FF010000241100003011000063
:1032E000341100000023034A8350034A8350034AE9
:1032F00083507047D0110000D4110000D811000095
:103300000123044A5B428350034A8350034A83509B
:103310007047C046D0110000D4110000D811000041
:103320000A78044BC2504A78083BC2508A78024B54
:10333000C2507047081000000C1100001A4B4A6878
:1033400030B5C2500B78222B08D8184A9B00D358AE
:103350009F46174A174C8358234083500A69164BDF
:10336000164DC250164ACB68845863402B406340C8
:103370000F4C83500359134A134003510B780A7AB8
:1033800005591A433F236A4013406B40035130BD37
:103390008023C025064A9B058458AD0563402B4019
:1033A00063408350DAE7C046081800006837000021
:1033B00004180000FFFFFFCF10180000777702000D
:1033C000301800007F00FFFF882230B50124520131
:1033D0008358A34383508D780B8884582B438D8862
:1033E0002B43094D63402B4063408350CA798B794E
:1033F000064C13430A7A055913437E226B4013404F
:103400006B40035130BDC046186702000411000034
:103410000A78034BC2504A78083BC2507047C046F6
:1034200008100000054A030082580020520703D408
:10343000034A01309B580B707047C04608110000CA
:103440002411000000000000F8B5C046F8BC08BC1C
:103450009E46704700000000F8B5C046A922000053
:10346000F8BC08BC9E46704701B40248844601BCC3
:10347000604700BFE100202001B40248844601BC3F
:08348000604700BF010020209D
:10348800B0B584B000AF786039607B689B059B0D50
:1034980001D000233CE07B68FB602AE01E4B18004B
:1034A80000F08AF8FB68180000F03CF8031E19D1F8
:1034B80019480B257C19FB684022190000F08CF88C
:1034C800030023707B191B78012B0CD1FA68134B6E
:1034D8001100180000F068F80F4B180000F05CF8B5
:1034E800002315E0C046FB688022D200944663445E
:1034F800FB607A683B68D318FA689A42CED3064BC9
:10350800180000F049F8064B180000F05DF8012398
:103518001800BD4604B0B0BD00D00C40F035000026
:103528001436000080B584B000AF78607B68FB601B
:1035380008E0FB681B68013301D000230BE0FB683F
:103548000433FB607B688022D20094466344FA68A7
:103558009A42EED301231800BD4604B080BDC04690
:10356800882301225B01C250094982B0063203E078
:10357800019BDBB2012B06D0435813400193019BFA
:10358800DBB2032BF4D10198C0B202B07047C04639
:10359800D01300000000000001B40248844601BCBA
:1035A800604700BF0133000001B40248844601BCF3
:1035B800604700BF0D06000001B40248844601BC04
:1035C800604700BFE532000001B40248844601BCF0
:1035D800604700BF1907000001B40248844601BCD7
:0835E800604700BF95320000AE
:1035F00066726F6D20256C75207374617274696ECC
:1036000067206572617365206661696C6564210D70
:103610000A0000007374617274696E6720657261DC
:1036200073652073756363656564210D0000000098
:1036300025646D7320696E70757420276F2720656F
:103640006E746572206F72646572696E670D0A0030
:103650006A756D70206661696C65640D000000001C
:103660002D2D68656C700D000D5B305D72657365A6
:10367000740D00000D5B315D7570646174652041EF
:103680000D0000000D5B325D656E74657220410DAA
:10369000000000002D2D656E746572206465666102
:1036A000756C74206D6F64650D000000666C61734D
:1036B000682066696E69736865640D00BA18000059
:1036C000C0170000C0170000C0170000C01700009E
:1036D000C0170000C0170000C0170000C01700008E
:1036E000C0170000C01700001C180000D41700000D
:1036F000C0170000C0170000C0170000C01700006E
:10370000D4170000C0170000C0170000C017000049
:10371000C017000036170000FC1700004E1800000C
:10372000C0170000C017000030180000C0170000CC
:10373000FC170000C0170000C0170000C8180000E8
:1037400008070000020000009F0F000001000000B9
:103750000000000000000000080000000000180049
:103760000000003000000000523300005C33000015
:10377000523300005C3300005C3300005C33000017
:103780005C3300005C3300005C3300005C330000FD
:103790005C3300005C3300005C3300005C330000ED
:1037A0005C3300005C330000903300005C330000A9
:1037B000903300005C3300005C3300005C33000099
:1037C0005C3300005C3300005C3300005C330000BD
:1037D0005C3300005C3300005C3300005C330000AD
:1037E0005C3300005C330000903300005C33000069
:1037F00090330000232D302B20000000686C4C001B
:103800006566674546470000303132333435363718
:1038100038394142434445460000000030313233DC
:1038200034353637383961626364656600000000FC
:04383000D1220000A1
:04383400FFFFFFFF94
:0838380088C8FF7F01000000B9
:103840000000000003000000D401202078012020A7
:1038500000000000D40120203C022020A4022020EF
:103860000000000000000000000000000000000058
:103870000000000000000000000000000000000048
:103880000000000000000000000000000000000038
:10389000000000000000000000000000150F000004
:0838A0002803202000000000B5
:04000003000000C039
:00000001FF
